S01000007072656C61625F352E737265630A
S11300000C9434000C9451000C9451000C94510045
S11300100C9451000C9451000C9451000C94510018
S11300200C9451000C9451000C9451000C94510008
S11300300C9451000C9451000C9451000C945100F8
S11300400C9451000C9451000C9451000C945100E8
S11300500C9451000C94CE000C9451000C9451005B
S11300600C9451000C94510011241FBECFEFD8E022
S1130070DEBFCDBF11E0A0E0B1E0E0E7F2E002C0F6
S113008005900D92A030B107D9F721E0A0E0B1E0CE
S113009001C01D92A330B207E1F70E94B5000C9491
S11300A036010C9400009093890080938800089591
S11300B0E0E8F0E010828081806C808380818A6136
S11300C0808380E49CE99093870080938600E1E834
S11300D0F0E010828081826080830895ECE7F0E094
S11300E010828081806480838081806280838081AB
S11300F086608083EAE7F0E01082808183608083F9
S1130100808188608083808180688083808180642E
S113011080830895F8948AB18FEF8AB99BB19BB913
S113012097B187B988B188B984B18F6084B985B132
S1130130806385B9EBE6F0E0808180638083E8E644
S1130140F0E0808181608083E1E6F0E080E88083F4
S113015084E080830E9458000E946E00EAE7F0E089
S1130160808180648083789408950E948A0020911D
S1130170020130E0A0EDB7E00E9427012FEF33E049
S113018040E050E00E940501C9018053984F9093CC
S11301900101809300010E945300E9CF1F920F9246
S11301A00FB60F9211242F933F938F939F93EF9346
S11301B0FF9390E020E030E00EC0EAE7F0E08081B9
S11301C08064808380917A0086FDFCCF80917900E1
S11301D0280F311D9F5F983080F33695279536950B
S11301E027953695279520930201EAE7F0E0808170
S11301F080648083FF91EF919F918F913F912F9124
S11302000F900FBE0F901F901895A1E21A2EAA1BF3
S1130210BB1BFD010DC0AA1FBB1FEE1FFF1FA217B2
S1130220B307E407F50720F0A21BB30BE40BF50BAF
S1130230661F771F881F991F1A9469F76095709538
S1130240809590959B01AC01BD01CF010895A29FBB
S1130250B001B39FC001A39F700D811D1124911D96
S1130260B29F700D811D1124911D0895F894FFCF44
S9030000FC
